{"abi":[{"type":"constructor","inputs":[],"stateMutability":"nonpayable"},{"type":"function","name":"UPGRADE_INTERFACE_VERSION","inputs":[],"outputs":[{"name":"","type":"string","internalType":"string"}],"stateMutability":"view"},{"type":"function","name":"activateBattle","inputs":[{"name":"_battleId","type":"bytes32","internalType":"bytes32"}],"outputs":[],"stateMutability":"nonpayable"},{"type":"function","name":"agentStats","inputs":[{"name":"","type":"uint256","internalType":"uint256"}],"outputs":[{"name":"wins","type":"uint256","internalType":"uint256"},{"name":"losses","type":"uint256","internalType":"uint256"},{"name":"kills","type":"uint256","internalType":"uint256"},{"name":"totalBattles","type":"uint256","internalType":"uint256"},{"name":"totalEpochsSurvived","type":"uint256","internalType":"uint256"},{"name":"exists","type":"bool","internalType":"bool"}],"stateMutability":"view"},{"type":"function","name":"battleIds","inputs":[{"name":"","type":"uint256","internalType":"uint256"}],"outputs":[{"name":"","type":"bytes32","internalType":"bytes32"}],"stateMutability":"view"},{"type":"function","name":"battleResults","inputs":[{"name":"","type":"bytes32","internalType":"bytes32"},{"name":"","type":"uint256","internalType":"uint256"}],"outputs":[{"name":"agentId","type":"uint256","internalType":"uint256"},{"name":"finalHp","type":"uint256","internalType":"uint256"},{"name":"kills","type":"uint256","internalType":"uint256"},{"name":"survivedEpochs","type":"uint256","internalType":"uint256"},{"name":"isWinner","type":"bool","internalType":"bool"}],"stateMutability":"view"},{"type":"function","name":"battles","inputs":[{"name":"","type":"bytes32","internalType":"bytes32"}],"outputs":[{"name":"battleId","type":"bytes32","internalType":"bytes32"},{"name":"state","type":"uint8","internalType":"enum HungernadsArena.BattleState"},{"name":"winnerId","type":"uint256","internalType":"uint256"},{"name":"createdAt","type":"uint256","internalType":"uint256"},{"name":"completedAt","type":"uint256","internalType":"uint256"},{"name":"entryFee","type":"uint256","internalType":"uint256"}],"stateMutability":"view"},{"type":"function","name":"feePaid","inputs":[{"name":"","type":"bytes32","internalType":"bytes32"},{"name":"","type":"address","internalType":"address"}],"outputs":[{"name":"","type":"bool","internalType":"bool"}],"stateMutability":"view"},{"type":"function","name":"feesCollected","inputs":[{"name":"","type":"bytes32","internalType":"bytes32"}],"outputs":[{"name":"","type":"uint256","internalType":"uint256"}],"stateMutability":"view"},{"type":"function","name":"getAgentStats","inputs":[{"name":"_agentId","type":"uint256","internalType":"uint256"}],"outputs":[{"name":"","type":"tuple","internalType":"struct HungernadsArena.AgentStats","components":[{"name":"wins","type":"uint256","internalType":"uint256"},{"name":"losses","type":"uint256","internalType":"uint256"},{"name":"kills","type":"uint256","internalType":"uint256"},{"name":"totalBattles","type":"uint256","internalType":"uint256"},{"name":"totalEpochsSurvived","type":"uint256","internalType":"uint256"},{"name":"exists","type":"bool","internalType":"bool"}]}],"stateMutability":"view"},{"type":"function","name":"getBattle","inputs":[{"name":"_battleId","type":"bytes32","internalType":"bytes32"}],"outputs":[{"name":"","type":"tuple","internalType":"struct HungernadsArena.Battle","components":[{"name":"battleId","type":"bytes32","internalType":"bytes32"},{"name":"state","type":"uint8","internalType":"enum HungernadsArena.BattleState"},{"name":"agentIds","type":"uint256[]","internalType":"uint256[]"},{"name":"winnerId","type":"uint256","internalType":"uint256"},{"name":"createdAt","type":"uint256","internalType":"uint256"},{"name":"completedAt","type":"uint256","internalType":"uint256"},{"name":"entryFee","type":"uint256","internalType":"uint256"}]}],"stateMutability":"view"},{"type":"function","name":"getBattleAgents","inputs":[{"name":"_battleId","type":"bytes32","internalType":"bytes32"}],"outputs":[{"name":"","type":"uint256[]","internalType":"uint256[]"}],"stateMutability":"view"},{"type":"function","name":"getBattleCount","inputs":[],"outputs":[{"name":"","type":"uint256","internalType":"uint256"}],"stateMutability":"view"},{"type":"function","name":"getBattleIds","inputs":[{"name":"_offset","type":"uint256","internalType":"uint256"},{"name":"_limit","type":"uint256","internalType":"uint256"}],"outputs":[{"name":"","type":"bytes32[]","internalType":"bytes32[]"}],"stateMutability":"view"},{"type":"function","name":"getBattleResult","inputs":[{"name":"_battleId","type":"bytes32","internalType":"bytes32"},{"name":"_agentId","type":"uint256","internalType":"uint256"}],"outputs":[{"name":"","type":"tuple","internalType":"struct HungernadsArena.AgentResult","components":[{"name":"agentId","type":"uint256","internalType":"uint256"},{"name":"finalHp","type":"uint256","internalType":"uint256"},{"name":"kills","type":"uint256","internalType":"uint256"},{"name":"survivedEpochs","type":"uint256","internalType":"uint256"},{"name":"isWinner","type":"bool","internalType":"bool"}]}],"stateMutability":"view"},{"type":"function","name":"initialize","inputs":[{"name":"_oracle","type":"address","internalType":"address"}],"outputs":[],"stateMutability":"nonpayable"},{"type":"function","name":"oracle","inputs":[],"outputs":[{"name":"","type":"address","internalType":"address"}],"stateMutability":"view"},{"type":"function","name":"owner","inputs":[],"outputs":[{"name":"","type":"address","internalType":"address"}],"stateMutability":"view"},{"type":"function","name":"payEntryFee","inputs":[{"name":"_battleId","type":"bytes32","internalType":"bytes32"}],"outputs":[],"stateMutability":"payable"},{"type":"function","name":"proxiableUUID","inputs":[],"outputs":[{"name":"","type":"bytes32","internalType":"bytes32"}],"stateMutability":"view"},{"type":"function","name":"recordResult","inputs":[{"name":"_battleId","type":"bytes32","internalType":"bytes32"},{"name":"_winnerId","type":"uint256","internalType":"uint256"},{"name":"_results","type":"tuple[]","internalType":"struct HungernadsArena.AgentResult[]","components":[{"name":"agentId","type":"uint256","internalType":"uint256"},{"name":"finalHp","type":"uint256","internalType":"uint256"},{"name":"kills","type":"uint256","internalType":"uint256"},{"name":"survivedEpochs","type":"uint256","internalType":"uint256"},{"name":"isWinner","type":"bool","internalType":"bool"}]}],"outputs":[],"stateMutability":"nonpayable"},{"type":"function","name":"registerBattle","inputs":[{"name":"_battleId","type":"bytes32","internalType":"bytes32"},{"name":"_agentIds","type":"uint256[]","internalType":"uint256[]"},{"name":"_entryFee","type":"uint256","internalType":"uint256"}],"outputs":[],"stateMutability":"nonpayable"},{"type":"function","name":"renounceOwnership","inputs":[],"outputs":[],"stateMutability":"nonpayable"},{"type":"function","name":"setOracle","inputs":[{"name":"_oracle","type":"address","internalType":"address"}],"outputs":[],"stateMutability":"nonpayable"},{"type":"function","name":"transferOwnership","inputs":[{"name":"newOwner","type":"address","internalType":"address"}],"outputs":[],"stateMutability":"nonpayable"},{"type":"function","name":"upgradeToAndCall","inputs":[{"name":"newImplementation","type":"address","internalType":"address"},{"name":"data","type":"bytes","internalType":"bytes"}],"outputs":[],"stateMutability":"payable"},{"type":"function","name":"withdrawFees","inputs":[{"name":"_battleId","type":"bytes32","internalType":"bytes32"}],"outputs":[],"stateMutability":"nonpayable"},{"type":"event","name":"AgentEliminated","inputs":[{"name":"battleId","type":"bytes32","indexed":true,"internalType":"bytes32"},{"name":"agentId","type":"uint256","indexed":true,"internalType":"uint256"},{"name":"finalHp","type":"uint256","indexed":false,"internalType":"uint256"},{"name":"kills","type":"uint256","indexed":false,"internalType":"uint256"}],"anonymous":false},{"type":"event","name":"AgentRegistered","inputs":[{"name":"agentId","type":"uint256","indexed":true,"internalType":"uint256"}],"anonymous":false},{"type":"event","name":"BattleActivated","inputs":[{"name":"battleId","type":"bytes32","indexed":true,"internalType":"bytes32"}],"anonymous":false},{"type":"event","name":"BattleCompleted","inputs":[{"name":"battleId","type":"bytes32","indexed":true,"internalType":"bytes32"},{"name":"winnerId","type":"uint256","indexed":true,"internalType":"uint256"}],"anonymous":false},{"type":"event","name":"BattleCreated","inputs":[{"name":"battleId","type":"bytes32","indexed":true,"internalType":"bytes32"},{"name":"agentIds","type":"uint256[]","indexed":false,"internalType":"uint256[]"}],"anonymous":false},{"type":"event","name":"EntryFeePaid","inputs":[{"name":"battleId","type":"bytes32","indexed":true,"internalType":"bytes32"},{"name":"player","type":"address","indexed":true,"internalType":"address"},{"name":"amount","type":"uint256","indexed":false,"internalType":"uint256"}],"anonymous":false},{"type":"event","name":"FeesWithdrawn","inputs":[{"name":"battleId","type":"bytes32","indexed":true,"internalType":"bytes32"},{"name":"to","type":"address","indexed":true,"internalType":"address"},{"name":"amount","type":"uint256","indexed":false,"internalType":"uint256"}],"anonymous":false},{"type":"event","name":"Initialized","inputs":[{"name":"version","type":"uint64","indexed":false,"internalType":"uint64"}],"anonymous":false},{"type":"event","name":"OracleUpdated","inputs":[{"name":"previousOracle","type":"address","indexed":true,"internalType":"address"},{"name":"newOracle","type":"address","indexed":true,"internalType":"address"}],"anonymous":false},{"type":"event","name":"OwnershipTransferred","inputs":[{"name":"previousOwner","type":"address","indexed":true,"internalType":"address"},{"name":"newOwner","type":"address","indexed":true,"internalType":"address"}],"anonymous":false},{"type":"event","name":"Upgraded","inputs":[{"name":"implementation","type":"address","indexed":true,"internalType":"address"}],"anonymous":false},{"type":"error","name":"AddressEmptyCode","inputs":[{"name":"target","type":"address","internalType":"address"}]},{"type":"error","name":"AlreadyPaid","inputs":[]},{"type":"error","name":"BattleAlreadyExists","inputs":[{"name":"battleId","type":"bytes32","internalType":"bytes32"}]},{"type":"error","name":"BattleNotCompleted","inputs":[]},{"type":"error","name":"BattleNotFound","inputs":[{"name":"battleId","type":"bytes32","internalType":"bytes32"}]},{"type":"error","name":"ERC1967InvalidImplementation","inputs":[{"name":"implementation","type":"address","internalType":"address"}]},{"type":"error","name":"ERC1967NonPayable","inputs":[]},{"type":"error","name":"FailedCall","inputs":[]},{"type":"error","name":"IncorrectFeeAmount","inputs":[]},{"type":"error","name":"InvalidAgentCount","inputs":[]},{"type":"error","name":"InvalidBattleState","inputs":[{"name":"battleId","type":"bytes32","internalType":"bytes32"},{"name":"current","type":"uint8","internalType":"enum HungernadsArena.BattleState"},{"name":"expected","type":"uint8","internalType":"enum HungernadsArena.BattleState"}]},{"type":"error","name":"InvalidInitialization","inputs":[]},{"type":"error","name":"NoFeeRequired","inputs":[]},{"type":"error","name":"NoFeesToWithdraw","inputs":[]},{"type":"error","name":"NotInitializing","inputs":[]},{"type":"error","name":"OnlyOracle","inputs":[]},{"type":"error","name":"OwnableInvalidOwner","inputs":[{"name":"owner","type":"address","internalType":"address"}]},{"type":"error","name":"OwnableUnauthorizedAccount","inputs":[{"name":"account","type":"address","internalType":"address"}]},{"type":"error","name":"ResultAgentMismatch","inputs":[{"name":"battleId","type":"bytes32","internalType":"bytes32"}]},{"type":"error","name":"UUPSUnauthorizedCallContext","inputs":[]},{"type":"error","name":"UUPSUnsupportedProxiableUUID","inputs":[{"name":"slot","type":"bytes32","internalType":"bytes32"}]},{"type":"error","name":"ZeroAddress","inputs":[]}],"bytecode":{"object":"0x60a060405230608052348015610013575f80fd5b5061001c610021565b6100d3565b7ff0c57e16840df040f15088dc2f81fe391c3923bec73e23a9662efc9c229c6a00805468010000000000000000900460ff16156100715760405163f92ee8a960e01b815260040160405180910390fd5b80546001600160401b03908116146100d05780546001600160401b0319166001600160401b0390811782556040519081527fc7f505b2f371ae2175ee4913f4499e1f2633a7b5936321eed1cdaeb6115181d29060200160405180910390a15b50565b60805161201f6100f95f395f81816115ac015281816115d50152611719015261201f5ff3fe60806040526004361061017b575f3560e01c80637adbf973116100cd578063c4d66de811610087578063ebb7119411610062578063ebb7119414610622578063f2fde38b14610641578063f470d5ec14610660578063fe93369114610674575f80fd5b8063c4d66de8146105c5578063d39a2abd146105e4578063e6b65a221461060f575f80fd5b80637adbf973146104e15780637dc0d1d0146105005780638da5cb5b146105365780639932b3041461054a578063a13477d214610569578063ad3cb1cc14610588575f80fd5b80634f1ef28611610138578063680916331161011357806368091633146103d057806371337eaf1461043c578063715018a61461046857806378547e6c1461047c575f80fd5b80634f1ef2861461037c578063513f3f271461038f57806352d1902d146103ae575f80fd5b8063353738ca1461017f578063355d1184146101cd578063402add081461024a57806341935b06146102cd5780634225483d1461032f57806343cc221314610350575b5f80fd5b34801561018a575f80fd5b506101b8610199366004611a9e565b600560209081525f928352604080842090915290825290205460ff1681565b60405190151581526020015b60405180910390f35b3480156101d8575f80fd5b506102206101e7366004611ac8565b600260208181525f9384526040808520909152918352912080546001820154928201546003830154600490930154919392909160ff1685565b6040805195865260208601949094529284019190915260608301521515608082015260a0016101c4565b348015610255575f80fd5b5061029e610264366004611ae8565b600360208190525f918252604090912080546001820154600283015493830154600484015460059094015492949193919290919060ff1686565b6040805196875260208701959095529385019290925260608401526080830152151560a082015260c0016101c4565b3480156102d8575f80fd5b506102ec6102e7366004611ac8565b610693565b6040516101c491905f60a0820190508251825260208301516020830152604083015160408301526060830151606083015260808301511515608083015292915050565b34801561033a575f80fd5b5061034e610349366004611aff565b61071e565b005b34801561035b575f80fd5b5061036f61036a366004611ae8565b6109ef565b6040516101c49190611bb1565b61034e61038a366004611c5c565b610aff565b34801561039a575f80fd5b5061034e6103a9366004611ae8565b610b1e565b3480156103b9575f80fd5b506103c2610c11565b6040519081526020016101c4565b3480156103db575f80fd5b506103ef6103ea366004611ae8565b610c2c565b6040516101c491905f60c082019050825182526020830151602083015260408301516040830152606083015160608301526080830151608083015260a0830151151560a083015292915050565b348015610447575f80fd5b5061045b610456366004611ae8565b610cbd565b6040516101c49190611d18565b348015610473575f80fd5b5061034e610d1f565b348015610487575f80fd5b506104cf610496366004611ae8565b600160208190525f918252604090912080549181015460038201546004830154600584015460069094015460ff90931693919290919086565b6040516101c496959493929190611d5b565b3480156104ec575f80fd5b5061034e6104fb366004611d92565b610d32565b34801561050b575f80fd5b505f5461051e906001600160a01b031681565b6040516001600160a01b0390911681526020016101c4565b348015610541575f80fd5b5061051e610db0565b348015610555575f80fd5b5061034e610564366004611db2565b610dde565b348015610574575f80fd5b506103c2610583366004611ae8565b611057565b348015610593575f80fd5b506105b8604051806040016040528060058152602001640352e302e360dc1b81525081565b6040516101c49190611e2e565b3480156105d0575f80fd5b5061034e6105df366004611d92565b611076565b3480156105ef575f80fd5b506103c26105fe366004611ae8565b60066020525f908152604090205481565b61034e61061d366004611ae8565b6111dd565b34801561062d575f80fd5b5061034e61063c366004611ae8565b611324565b34801561064c575f80fd5b5061034e61065b366004611d92565b611478565b34801561066b575f80fd5b506004546103c2565b34801561067f575f80fd5b5061045b61068e366004611ac8565b6114b5565b6106c26040518060a001604052805f81526020015f81526020015f81526020015f81526020015f151581525090565b505f828152600260208181526040808420858552825292839020835160a081018552815481526001820154928101929092529182015492810192909252600381015460608301526004015460ff16151560808201525b92915050565b5f546001600160a01b03163314610748576040516380fee10560e01b815260040160405180910390fd5b5f8481526001602081905260408220015460ff16600381111561076d5761076d611b7d565b1461079357604051633c80e6e760e11b8152600481018590526024015b60405180910390fd5b60028210156107b557604051631cd8dc2160e31b815260040160405180910390fd5b6040805160e0810190915284815260208101600181526020018484808060200260200160405190810160405280939291908181526020018383602002808284375f9201829052509385525050506020808301829052426040808501919091526060840183905260809093018590528782526001808252929091208351815590830151818301805492939192909160ff199091169083600381111561085b5761085b611b7d565b02179055506040820151805161087b916002840191602090910190611a26565b5060608201516003820155608082015160048083019190915560a0830151600583015560c09092015160069091015580546001810182555f9182527f8a35acfbc15ff81a39ae7d344fd709f28e8600b4aa8c65c6b64bfe7fe36bd19b018590555b828110156109ae5760035f8585848181106108f9576108f9611e7a565b602090810292909201358352508101919091526040015f206005015460ff166109a657600160035f86868581811061093357610933611e7a565b9050602002013581526020019081526020015f206005015f6101000a81548160ff02191690831515021790555083838281811061097257610972611e7a565b905060200201357f7889fb3af617fa63644484c3243b8aa95edf844fcdff4c9160adf5de94d7225560405160405180910390a25b6001016108dc565b50837f869a13f1013d86015acc1955a0e1087ad5135eb7fa3f07bc54bc8aa17df0aad484846040516109e1929190611e8e565b60405180910390a250505050565b610a2b6040805160e081019091525f80825260208201908152602001606081526020015f81526020015f81526020015f81526020015f81525090565b5f82815260016020818152604092839020835160e0810190945280548452918201549083019060ff166003811115610a6557610a65611b7d565b6003811115610a7657610a76611b7d565b815260200160028201805480602002602001604051908101604052809291908181526020018280548015610ac757602002820191905f5260205f20905b815481526020019060010190808311610ab3575b505050505081526020016003820154815260200160048201548152602001600582015481526020016006820154815250509050919050565b610b076115a1565b610b1082611645565b610b1a828261164d565b5050565b5f546001600160a01b03163314610b48576040516380fee10560e01b815260040160405180910390fd5b5f81815260016020526040812090600182015460ff166003811115610b6f57610b6f611b7d565b03610b9057604051631ad8171960e11b81526004810183905260240161078a565b60018082015460ff166003811115610baa57610baa611b7d565b14610bd457600180820154604051631f6fdc1960e21b815261078a92859260ff1691600401611ec5565b60018101805460ff1916600217905560405182907fd1ddc3dd6519e56d82f5c020bbd2401678c00812f6851cded6681cd68d762024905f90a25050565b5f610c1a61170e565b505f80516020611fca83398151915290565b610c616040518060c001604052805f81526020015f81526020015f81526020015f81526020015f81526020015f151581525090565b505f90815260036020818152604092839020835160c081018552815481526001820154928101929092526002810154938201939093529082015460608201526004820154608082015260059091015460ff16151560a082015290565b5f81815260016020908152604091829020600201805483518184028101840190945280845260609392830182828015610d1357602002820191905f5260205f20905b815481526020019060010190808311610cff575b50505050509050919050565b610d27611757565b610d305f611789565b565b610d3a611757565b6001600160a01b038116610d615760405163d92e233d60e01b815260040160405180910390fd5b5f80546001600160a01b038381166001600160a01b0319831681178455604051919092169283917f078c3b417dadf69374a59793b829c52001247130433427049317bde56607b1b79190a35050565b7f9016d09d72d40fdae2fd8ceac6b6234c7706214fd39c1cd1e609a0528c199300546001600160a01b031690565b5f546001600160a01b03163314610e08576040516380fee10560e01b815260040160405180910390fd5b5f84815260016020526040812090600182015460ff166003811115610e2f57610e2f611b7d565b03610e5057604051631ad8171960e11b81526004810186905260240161078a565b6002600182015460ff166003811115610e6b57610e6b611b7d565b14610e99576001810154604051631f6fdc1960e21b815261078a91879160ff90911690600290600401611ec5565b60028101548214610ec057604051639835811560e01b81526004810186905260240161078a565b60018101805460ff1916600390811790915581018490554260058201555f5b828110156110235736848483818110610efa57610efa611e7a565b5f8a815260026020908152604080832060a090940295909501803583529290529290922091925082919050610f2f8282611efb565b505080355f908152600360208190526040822090810180549192610f5283611f59565b91905055508160400135816002015f828254610f6e9190611f71565b925050819055508160600135816004015f828254610f8c9190611f71565b90915550610fa2905060a0830160808401611f84565b15610fbe578054815f610fb483611f59565b9190505550611019565b600181018054905f610fcf83611f59565b909155505060408051602080850135825282850135908201528335918a917fbbc2b3774fbc5d04c2f937d8a07a25372bad7d0af324f1770cf7a3239083aa4e910160405180910390a35b5050600101610edf565b50604051849086907f3369448929aa7c2137b2d7398f1b4187901539e64814e7c27a133fb4d6e41400905f90a35050505050565b60048181548110611066575f80fd5b5f91825260209091200154905081565b5f61107f6117f9565b805490915060ff600160401b820416159067ffffffffffffffff165f811580156110a65750825b90505f8267ffffffffffffffff1660011480156110c25750303b155b9050811580156110d0575080155b156110ee5760405163f92ee8a960e01b815260040160405180910390fd5b845467ffffffffffffffff19166001178555831561111857845460ff60401b1916600160401b1785555b6001600160a01b03861661113f5760405163d92e233d60e01b815260040160405180910390fd5b61114833611821565b5f80546001600160a01b0319166001600160a01b03881690811782556040519091907f078c3b417dadf69374a59793b829c52001247130433427049317bde56607b1b7908290a383156111d557845460ff60401b19168555604051600181527fc7f505b2f371ae2175ee4913f4499e1f2633a7b5936321eed1cdaeb6115181d29060200160405180910390a15b505050505050565b5f81815260016020526040812090600182015460ff16600381111561120457611204611b7d565b0361122557604051631ad8171960e11b81526004810183905260240161078a565b80600601545f0361124957604051630603415960e11b815260040160405180910390fd5b8060060154341461126d57604051631fbbed9560e01b815260040160405180910390fd5b5f82815260056020908152604080832033845290915290205460ff16156112a757604051630d70a0e360e41b815260040160405180910390fd5b5f8281526005602090815260408083203384528252808320805460ff191660011790558483526006909152812080543492906112e4908490611f71565b9091555050604051348152339083907fcd2088ffeb057e96f56fe608a2f8588c7c8dddddd6a60000d39f7b3b2527246b9060200160405180910390a35050565b61132c611757565b5f8181526001602052604090206003600182015460ff16600381111561135457611354611b7d565b1461137257604051635b6d970760e11b815260040160405180910390fd5b5f82815260066020526040812054908190036113a157604051630d00db4d60e31b815260040160405180910390fd5b5f8381526006602052604081208190556113b9610db0565b6001600160a01b0316826040515f6040518083038185875af1925050503d805f8114611400576040519150601f19603f3d011682016040523d82523d5f602084013e611405565b606091505b50509050806114275760405163d92e233d60e01b815260040160405180910390fd5b61142f610db0565b6001600160a01b0316847f7dae2ebbcfe5496fc999131fbc530cc1579c5bfe5097a2986d5fa4b5e06e92b58460405161146a91815260200190565b60405180910390a350505050565b611480611757565b6001600160a01b0381166114a957604051631e4fbdf760e01b81525f600482015260240161078a565b6114b281611789565b50565b6004546060908084106114d7575050604080515f815260208101909152610718565b5f6114e28486611f71565b9050818111156114ef5750805b5f6114fa8683611f9f565b90505f8167ffffffffffffffff81111561151657611516611c48565b60405190808252806020026020018201604052801561153f578160200160208202803683370190505b5090505f5b82811015611596576004611558828a611f71565b8154811061156857611568611e7a565b905f5260205f20015482828151811061158357611583611e7a565b6020908102919091010152600101611544565b509695505050505050565b306001600160a01b037f000000000000000000000000000000000000000000000000000000000000000016148061162757507f00000000000000000000000000000000000000000000000000000000000000006001600160a01b031661161b5f80516020611fca833981519152546001600160a01b031690565b6001600160a01b031614155b15610d305760405163703e46dd60e11b815260040160405180910390fd5b6114b2611757565b816001600160a01b03166352d1902d6040518163ffffffff1660e01b8152600401602060405180830381865afa9250505080156116a7575060408051601f3d908101601f191682019092526116a491810190611fb2565b60015b6116cf57604051634c9c8ce360e01b81526001600160a01b038316600482015260240161078a565b5f80516020611fca83398151915281146116ff57604051632a87526960e21b81526004810182905260240161078a565b6117098383611832565b505050565b306001600160a01b037f00000000000000000000000000000000000000000000000000000000000000001614610d305760405163703e46dd60e11b815260040160405180910390fd5b33611760610db0565b6001600160a01b031614610d305760405163118cdaa760e01b815233600482015260240161078a565b7f9016d09d72d40fdae2fd8ceac6b6234c7706214fd39c1cd1e609a0528c19930080546001600160a01b031981166001600160a01b03848116918217845560405192169182907f8be0079c531659141344cd1fd0a4f28419497f9722a3daafe3b4186f6b6457e0905f90a3505050565b5f807ff0c57e16840df040f15088dc2f81fe391c3923bec73e23a9662efc9c229c6a00610718565b611829611887565b6114b2816118ac565b61183b826118b4565b6040516001600160a01b038316907fbc7cd75a20ee27fd9adebab32041f755214dbc6bffa90cc0225b39da2e5c2d3b905f90a280511561187f576117098282611917565b610b1a6119b7565b61188f6119d6565b610d3057604051631afcd79f60e31b815260040160405180910390fd5b611480611887565b806001600160a01b03163b5f036118e957604051634c9c8ce360e01b81526001600160a01b038216600482015260240161078a565b5f80516020611fca83398151915280546001600160a01b0319166001600160a01b0392909216919091179055565b60605f61192484846119ef565b905080801561194557505f3d118061194557505f846001600160a01b03163b115b1561195a57611952611a02565b915050610718565b801561198457604051639996b31560e01b81526001600160a01b038516600482015260240161078a565b3d1561199757611992611a1b565b6119b0565b60405163d6bda27560e01b815260040160405180910390fd5b5092915050565b3415610d305760405163b398979f60e01b815260040160405180910390fd5b5f6119df6117f9565b54600160401b900460ff16919050565b5f805f835160208501865af49392505050565b6040513d81523d5f602083013e3d602001810160405290565b6040513d5f823e3d81fd5b828054828255905f5260205f20908101928215611a5f579160200282015b82811115611a5f578251825591602001919060010190611a44565b50611a6b929150611a6f565b5090565b5b80821115611a6b575f8155600101611a70565b80356001600160a01b0381168114611a99575f80fd5b919050565b5f8060408385031215611aaf575f80fd5b82359150611abf60208401611a83565b90509250929050565b5f8060408385031215611ad9575f80fd5b50508035926020909101359150565b5f60208284031215611af8575f80fd5b5035919050565b5f805f8060608587031215611b12575f80fd5b84359350602085013567ffffffffffffffff80821115611b30575f80fd5b818701915087601f830112611b43575f80fd5b813581811115611b51575f80fd5b8860208260051b8501011115611b65575f80fd5b95986020929092019750949560400135945092505050565b634e487b7160e01b5f52602160045260245ffd5b60048110611bad57634e487b7160e01b5f52602160045260245ffd5b9052565b5f6020808352610100830184518285015281850151611bd36040860182611b91565b50604085015160e060608601528051918290528201905f906101208601905b80831015611c125783518252928401926001929092019190840190611bf2565b5060608701516080870152608087015160a087015260a087015160c087015260c087015160e08701528094505050505092915050565b634e487b7160e01b5f52604160045260245ffd5b5f8060408385031215611c6d575f80fd5b611c7683611a83565b9150602083013567ffffffffffffffff80821115611c92575f80fd5b818501915085601f830112611ca5575f80fd5b813581811115611cb757611cb7611c48565b604051601f8201601f19908116603f01168101908382118183101715611cdf57611cdf611c48565b81604052828152886020848701011115611cf7575f80fd5b826020860160208301375f6020848301015280955050505050509250929050565b602080825282518282018190525f9190848201906040850190845b81811015611d4f57835183529284019291840191600101611d33565b50909695505050505050565b86815260c08101611d6f6020830188611b91565b8560408301528460608301528360808301528260a0830152979650505050505050565b5f60208284031215611da2575f80fd5b611dab82611a83565b9392505050565b5f805f8060608587031215611dc5575f80fd5b8435935060208501359250604085013567ffffffffffffffff80821115611dea575f80fd5b818701915087601f830112611dfd575f80fd5b813581811115611e0b575f80fd5b88602060a083028501011115611e1f575f80fd5b95989497505060200194505050565b5f602080835283518060208501525f5b81811015611e5a57858101830151858201604001528201611e3e565b505f604082860101526040601f19601f8301168501019250505092915050565b634e487b7160e01b5f52603260045260245ffd5b602080825281018290525f6001600160fb1b03831115611eac575f80fd5b8260051b80856040850137919091016040019392505050565b83815260608101611ed96020830185611b91565b611ee66040830184611b91565b949350505050565b80151581146114b2575f80fd5b81358155602082013560018201556040820135600282015560608201356003820155600481016080830135611f2f81611eee565b815490151560ff1660ff19919091161790555050565b634e487b7160e01b5f52601160045260245ffd5b5f60018201611f6a57611f6a611f45565b5060010190565b8082018082111561071857610718611f45565b5f60208284031215611f94575f80fd5b8135611dab81611eee565b8181038181111561071857610718611f45565b5f60208284031215611fc2575f80fd5b505191905056fe360894a13ba1a3210667c828492db98dca3e2076cc3735a920a3ca505d382bbca2646970667358221220d171adb9d511d2567b8fd102395748f42daacef2d3db9c7c26c793d6e6d25c7c64736f6c63430008180033","linkReferences":{}},"methodIdentifiers":{"UPGRADE_INTERFACE_VERSION()":"ad3cb1cc","activateBattle(bytes32)":"513f3f27","agentStats(uint256)":"402add08","battleIds(uint256)":"a13477d2","battleResults(bytes32,uint256)":"355d1184","battles(bytes32)":"78547e6c","feePaid(bytes32,address)":"353738ca","feesCollected(bytes32)":"d39a2abd","getAgentStats(uint256)":"68091633","getBattle(bytes32)":"43cc2213","getBattleAgents(bytes32)":"71337eaf","getBattleCount()":"f470d5ec","getBattleIds(uint256,uint256)":"fe933691","getBattleResult(bytes32,uint256)":"41935b06","initialize(address)":"c4d66de8","oracle()":"7dc0d1d0","owner()":"8da5cb5b","payEntryFee(bytes32)":"e6b65a22","proxiableUUID()":"52d1902d","recordResult(bytes32,uint256,(uint256,uint256,uint256,uint256,bool)[])":"9932b304","registerBattle(bytes32,uint256[],uint256)":"4225483d","renounceOwnership()":"715018a6","setOracle(address)":"7adbf973","transferOwnership(address)":"f2fde38b","upgradeToAndCall(address,bytes)":"4f1ef286","withdrawFees(bytes32)":"ebb71194"},"id":15}